S00F0000447269766572732E7372656336
S11300000C942A000C9431040C945A040C94830428
S11300100C9447000C9447000C9447000C94A805DA
S11300200C94D1050C94FA050C94DB040C94AC04E8
S11300300C9447000C9447000C9447000C94470020
S11300400C9447000C9447000C9447000C94470010
S11300500C94470011241FBECFE5D8E0DEBFCDBF0E
S113006010E0A0E6B0E0ECEEF2E102C005900D92E3
S1130070A23EB107D9F721E0A2EEB0E001C01D9283
S1130080A130B207E1F70E9456020C9474090C9453
S11300900000FC018281823031F442E06181808180
S11300A00E949C02089540E0618180810E949C022C
S11300B00895FC018281813031F4618180810E9444
S11300C0FB03982F07C0618180810E94FB0391E0AC
S11300D0811190E0892F0895CF93C82F41E063E008
S11300E085E00E94750340E063E086E00E947503AA
S11300F0C4FB442740F961E084E00E947503C5FB1A
S1130100442740F961E085E00E947503C6FB44275B
S113011040F961E086E00E9475034C2F441F442798
S1130120441F61E087E00E94750341E063E087E0DB
S11301300E94750383EF91E00197F1F700C000007E
S113014040E063E087E00E94750383EF91E001974C
S1130150F1F700C000004C2F417061E084E00E9480
S11301607503C1FB442740F961E085E00E947503F3
S1130170C2FB442740F961E086E00E947503C3FB9B
S1130180442740F961E087E00E94750341E063E0A1
S113019087E00E94750383EF91E00197F1F700C0B7
S11301A0000040E063E087E00E94750383EF91E084
S11301B00197F1F700C00000CF910895CF93C82FA5
S11301C040E063E085E00E94750340E063E086E080
S11301D00E947503C4FB442740F961E084E00E9457
S11301E07503C5FB442740F961E085E00E9475036F
S11301F0C6FB442740F961E086E00E9475034C2F5A
S1130200441F4427441F61E087E00E94750341E0D6
S113021063E087E00E94750383EF91E00197F1F7B3
S113022000C0000040E063E087E00E94750383EFB4
S113023091E00197F1F700C000008091E20088236B
S113024089F14C2F417061E084E00E947503C1FB89
S1130250442740F961E085E00E947503C2FB44270E
S113026040F961E086E00E947503C3FB442740F92E
S113027061E087E00E94750341E063E087E00E944B
S1130280750383EF91E00197F1F700C0000040E0AF
S113029063E087E00E94750383EF91E00197F1F733
S11302A000C00000CF91089541E063E085E00E9422
S11302B09C0241E063E086E00E949C0241E063E02E
S11302C087E00E949C0241E061E084E00E949C027D
S11302D041E061E085E00E949C0241E061E086E04B
S11302E00E949C0241E061E087E00E949C028FE052
S11302F097E20197F1F700C0000080E30E94DE005E
S113030083EF91E00197F1F700C0000080E30E94C1
S1130310DE0083EF91E00197F1F700C0000080E375
S11303200E94DE0083EF91E00197F1F700C0000026
S113033080E20E94DE0083EF91E00197F1F700C0B4
S1130340000081E08093E2008CE00E94DE0086E001
S11303500E94DE0081E00E94DE0080E80E94DE0050
S113036008950F931F93CF938C01C0E003C00E94A4
S11303706C00CF5FF801EC0FF11D80818111F7CF84
S1130380CF911F910F91089581E00E94DE0080E8D3
S11303900E94DE000895CF93DF93CDB7DEB7E297D6
S11303A00FB6F894DEBF0FBECDBF242FAB01BC0146
S11303B0CE0101960E944006CE0101960E94B10131
S11303C0E2960FB6F894DEBF0FBECDBFDF91CF919A
S11303D008950E947A050E94C40184E690E00E9478
S11303E0B1016091E40070E080E090E00E94920727
S11303F040E00E94CB012FE78AE196E02150804043
S11304009040E1F700C000000E94C40184E790E03E
S11304100E94B1016091E30070E080E090E00E94EE
S1130420920740E00E94CB012FE78AE196E0215039
S113043080409040E1F700C000000E94C401809118
S1130440E400811105C084E890E00E94B10114C069
S1130450803128F088E990E00E94B1010DC09091AC
S1130460E300891305C08CEA90E00E94B10104C046
S113047084EB90E00E94B1012FE78AE196E02150DD
S113048080409040E1F700C000000E94C4018DEB61
S113049090E00E94B1011092E4006FE081E00E94BC
S11304A02E068093E3000E9474050895CF93DF9392
S11304B000D01F92CDB7DEB76FE081E00E942E0618
S11304C08093E3000E94540183ED90E00E94B10107
S11304D081E089831A828B83CE0101960E944900B0
S11304E00DEE1CEE20E040E060E085E00E9429056E
S11304F082E00E94840569EE71E082E00E94970523
S11305008DEE9CEE0E947105CE0101960E94590069
S11305108823D1F3CE0101960E945900882381F3E8
S11305208091E4008F5F8093E400CE0101960E94E5
S113053059008111FACFE4CF6130E1F138F0623033
S113054009F46CC0633009F49DC00895413069F426
S11305504AB321E030E0B90102C0660F771F8A95E3
S1130560E2F7CB01842B8ABB089541110EC04AB334
S113057021E030E0B90102C0660F771F8A95E2F7E7
S1130580CB01809584238ABB0895423009F0ACC026
S11305904BB321E030E0B90102C0660F771F8A95A2
S11305A0E2F7CB01942F982B9BBB9AB380958923B8
S11305B08ABB0895413069F447B321E030E0B901C2
S11305C002C0660F771F8A95E2F7CB01842B87BBA5
S11305D0089541110EC047B321E030E0B90102C0D3
S11305E0660F771F8A95E2F7CB018095842387BB3A
S11305F00895423009F078C048B321E030E0B901F1
S113060002C0660F771F8A95E2F7CB01942F982BCF
S113061098BB97B38095892387BB0895413069F4CB
S113062044B321E030E0B90102C0660F771F8A9518
S1130630E2F7CB01842B84BB089541110EC044B36F
S113064021E030E0B90102C0660F771F8A95E2F716
S1130650CB018095842384BB0895423009F044C0C3
S113066045B321E030E0B90102C0660F771F8A95D7
S1130670E2F7CB01942F982B95BB94B380958923F3
S113068084BB0895413069F441B321E030E0B901FD
S113069002C0660F771F8A95E2F7CB01842B81BBDA
S11306A0089541110EC041B321E030E0B90102C008
S11306B0660F771F8A95E2F7CB018095842381BB6F
S11306C00895423089F442B321E030E0B90102C018
S11306D0660F771F8A95E2F7CB01942F982B92BB74
S11306E091B38095892381BB0895613039F138F045
S11306F0623009F442C0633009F45EC008954130A9
S113070069F44BB321E030E0B90102C0660F771FF2
S11307108A95E2F7CB01842B8BBB089541116AC003
S11307204BB321E030E0B90102C0660F771F8A9510
S1130730E2F7CB01809584238BBB0895413069F4A3
S113074048B321E030E0B90102C0660F771F8A95F3
S1130750E2F7CB01842B88BB089541114BC048B309
S113076021E030E0B90102C0660F771F8A95E2F7F5
S1130770CB018095842388BB0895413069F445B347
S113078021E030E0B90102C0660F771F8A95E2F7D5
S1130790CB01842B85BB089541112CC045B321E0C6
S11307A030E0B90102C0660F771F8A95E2F7CB01EA
S11307B08095842385BB0895413069F442B321E0D8
S11307C030E0B90102C0660F771F8A95E2F7CB01CA
S11307D0842B82BB089541110DC042B321E030E067
S11307E0B90102C0660F771F8A95E2F7CB018095A5
S11307F0842382BB0895613089F028F06230C9F007
S1130800633011F12CC029B330E0A90102C0559521
S113081047958A95E2F7CA018170089526B330E0BE
S1130820A90102C0559547958A95E2F7CA018170DE
S1130830089523B330E0A90102C0559547958A95E0
S1130840E2F7CA018170089520B330E0A90102C023
S1130850559547958A95E2F7CA018170089580E01D
S113086008951F920F920FB60F9211242F933F9366
S11308704F935F936F937F938F939F93AF93BF93A4
S1130880EF93FF93E091E500F091E600309709F0D3
S11308900995FF91EF91BF91AF919F918F917F91B6
S11308A06F915F914F913F912F910F900FBE0F90D9
S11308B01F9018951F920F920FB60F9211242F9329
S11308C03F934F935F936F937F938F939F93AF93D4
S11308D0BF93EF93FF93E091E700F091E800309726
S11308E009F00995FF91EF91BF91AF919F918F917D
S11308F07F916F915F914F913F912F910F900FBE18
S11309000F901F9018951F920F920FB60F921124FB
S11309102F933F934F935F936F937F938F939F9303
S1130920AF93BF93EF93FF93E091E900F091EA0056
S1130930309709F00995FF91EF91BF91AF919F9185
S11309408F917F916F915F914F913F912F910F9074
S11309500FBE0F901F9018951F920F920FB60F9213
S113096011242F933F934F935F936F937F938F93B0
S11309709F93AF93BF93EF93FF93E091F000F091B7
S1130980F100309709F0099588B7816088BF80919C
S1130990F40082BFFF91EF91BF91AF919F918F912E
S11309A07F916F915F914F913F912F910F900FBE67
S11309B00F901F9018951F920F920FB60F9211244B
S11309C02F933F934F935F936F937F938F939F9353
S11309D0AF93BF93EF93FF938091EF008823F1F0DF
S11309E08091EC008F5F8093EC009091EB0089176D
S11309F038F040E06091EE008091ED000E947503B4
S1130A008091EC00843688F041E06091EE008091A2
S1130A10ED000E9475031092EC0007C0E091F20013
S1130A20F091F300309709F0099588B7826088BF88
S1130A30FF91EF91BF91AF919F918F917F916F91B2
S1130A405F914F913F912F910F900FBE0F901F9088
S1130A5018950F931F93CF93DF931FBC1EBC1DBC2F
S1130A601CBC1BBC1ABC19BC18BC17BC16BC61FB53
S1130A70AA27A0F9B0E0AA0FBB1F90E4499FA001E8
S1130A80112490E1299F90011124962F9170A92B94
S1130A90A42B2A2B2FBD62FB992790F9C92F90E034
S1130AA0D92FCC0FDD1FCC0FDD1FCC0FDD1F63FB57
S1130AB0EE27E0F9F0E0E295F295F07FFE27E07F83
S1130AC0FE27EC2BE82BEEBD1DBD0CBD1093F600EC
S1130AD00093F5008093F700DF91CF911F910F9160
S1130AE008959DBD8CBD08959EB58091F500892B18
S1130AF08EBD08958EB58E7F8EBD8EB58D7F8EBDD5
S1130B008EB58B7F8EBD089548B721E030E0B901E2
S1130B1002C0660F771F8A95E2F7CB01462B48BFC8
S1130B2099B7892B89BF8FB780688FBF08958530A7
S1130B3050F4E82FF0E03297EE0FFF1FE550FF4F1F
S1130B407183608308957093FA006093F9000895A7
S1130B501F920F920FB60F9211242F933F934F932E
S1130B605F936F937F938F939F93AF93BF93EF9311
S1130B70FF93E091FF00F0910001309709F009958F
S1130B80FF91EF91BF91AF919F918F917F916F9161
S1130B905F914F913F912F910F900FBE0F901F9037
S1130BA018951F920F920FB60F9211242F933F9313
S1130BB04F935F936F937F938F939F93AF93BF9361
S1130BC0EF93FF93E091FD00F091FE00309709F060
S1130BD00995FF91EF91BF91AF919F918F917F9173
S1130BE06F915F914F913F912F910F900FBE0F9096
S1130BF01F9018951F920F920FB60F9211242F93E6
S1130C003F934F935F936F937F938F939F93AF9390
S1130C10BF93EF93FF938091F8008F5F8093F80068
S1130C20E091FB00F091FC00309709F00995809168
S1130C30F5009091F6009DBD8CBDFF91EF91BF91A1
S1130C40AF919F918F917F916F915F914F913F9160
S1130C502F910F900FBE0F901F901895CF93DF9395
S1130C60D82FC62F0E941B096C2F70E06D1B7109D1
S1130C706F5F7F4F0E94A1088D0FDF91CF91089580
S1130C807F928F929F92AF92BF92CF92DF92EF9218
S1130C90FF920F931F93CF93DF936C014A015B0183
S1130CA0722E01E010E00BC0C801880F991F000FDD
S1130CB0111F000F111F000F111F080F191FC5016D
S1130CC0B4010E945C076017710770F79801ADECDE
S1130CD0BCEC0E94B5087C01F694E794F694E79482
S1130CE0F694E794C0E0D0E02FC0C501B4010E949F
S1130CF06307CB01B7010E948D08CB01F601EC0F0D
S1130D00FD1F20E3260F2083E89EB001E99E700DAD
S1130D10F89E700D112480E090E00E9492079B01E0
S1130D20AC01C501B4010E94EF064B015C019701BF
S1130D30ADECBCEC0E94B5087C01F694E794F69403
S1130D40E794F694E7942196E114F10471F60130E6
S1130D50110531F4F601EC0FFD1F80E38083219629
S1130D60772051F1F601EC0FFD1F8EE2808321966E
S1130D7023C020E030E040E251E4C501B4010E9408
S1130D8020084B015C018E010F5F1F4FCC0DDD1D50
S1130D900E94630780E3860F888370E080E090E020
S1130DA00E9494079B01AC01C501B4010E94EF06A7
S1130DB04B015C017A94E8017110DBCFCC0DDD1D91
S1130DC01882DF91CF911F910F91FF90EF90DF90E8
S1130DD0CF90BF90AF909F908F907F900895505880
S1130DE0BB27AA270E9407070C94E6070E94D8078E
S1130DF038F00E94DF0720F039F49F3F19F426F4FD
S1130E000C94D5070EF4E095E7FB0C94CF07E92F7B
S1130E100E94F70758F3BA17620773078407950708
S1130E2020F079F4A6F50C9419080EF4E0950B2E35
S1130E30BA2FA02D0B01B90190010C01CA01A00128
S1130E401124FF27591B99F0593F50F4503E68F183
S1130E501A16F040A22F232F342F4427585FF3CFC4
S1130E60469537952795A795F0405395C9F77EF495
S1130E701F16BA0B620B730B840BBAF09150A1F0DE
S1130E80FF0FBB1F661F771F881FC2F70EC0BA0F64
S1130E90621F731F841F48F4879577956795B795EC
S1130EA0F7959E3F08F0B0CF9395880F08F09927E7
S1130EB0EE0F9795879508950E9463076894B11182
S1130EC00C941A0808950E94FF0788F09F5798F021
S1130ED0B92F9927B751B0F0E1F0660F771F881F3B
S1130EE0991F1AF0BA95C9F714C0B13091F00E9455
S1130EF01908B1E008950C941908672F782F8827F2
S1130F00B85F39F0B93FCCF3869577956795B3957B
S1130F10D9F73EF490958095709561957F4F8F4FEA
S1130F209F4F0895E89409C097FB3EF490958095EF
S1130F30709561957F4F8F4F9F4F9923A9F0F92F9B
S1130F4096E9BB279395F695879577956795B79519
S1130F50F111F8CFFAF4BB0F11F460FF1BC06F5FFF
S1130F607F4F8F4F9F4F16C0882311F096E911C011
S1130F70772321F09EE8872F762F05C0662371F032
S1130F8096E8862F70E060E02AF09A95660F771F46
S1130F90881FDAF7880F9695879597F9089597F93A
S1130FA09F6780E870E060E008959FEF80EC08950B
S1130FB000240A9416161706180609060895002434
S1130FC00A9412161306140605060895092E0394AE
S1130FD0000C11F4882352F0BB0F40F4BF2B11F422
S1130FE060FF04C06F5F7F4F8F4F9F4F089557FD81
S1130FF09058440F551F59F05F3F71F04795880F83
S113100097FB991F61F09F3F79F087950895121619
S113101013061406551FF2CF4695F1DF08C01616C5
S113102017061806991FF1CF869571056105089476
S11310300895E894BB2766277727CB0197F908958D
S11310400E9433080C94E6070E94D80738F00E94E7
S1131050DF0720F0952311F00C94CF070C94D507EB
S113106011240C941A080E94F70770F3959FC1F39A
S1131070950F50E0551F629FF001729FBB27F00D42
S1131080B11D639FAA27F00DB11DAA1F649F662797
S1131090B00DA11D661F829F2227B00DA11D621FE6
S11310A0739FB00DA11D621F839FA00D611D221FA0
S11310B0749F3327A00D611D231F849F600D211D84
S11310C0822F762F6A2F11249F5750409AF0F1F007
S11310D088234AF0EE0FFF1FBB1F661F771F881F70
S11310E091505040A9F79E3F510580F00C94CF07D2
S11310F00C941A085F3FE4F3983ED4F386957795F1
S11311006795B795F795E7959F5FC1F7FE2B880F15
S1131110911D9695879597F90895AA1BBB1B51E1DC
S113112007C0AA1FBB1FA617B70710F0A61BB70B53
S1131130881F991F5A95A9F780959095BC01CD01F8
S1131140089597FB072E16F4009407D077FD09D075
S11311500E948D0807FC05D03EF4909581959F4F21
S11311600895709561957F4F0895A29FB001B39F34
S1131170C001A39F700D811D1124911DB29F700D9C
S1131180811D1124911D08950E94B508A59F900DFD
S1131190B49F900DA49F800D911D112408958F92EA
S11311A09F92AF92BF92CF92DF92EF92FF92CF9332
S11311B0DF93EC01688179818A819B8161157105D6
S11311C08105910521F464E279ED8BE597E02DE149
S11311D033EF41E050E00E942B0949015A019B0181
S11311E0AC01A7EAB1E40E94C4086B017C01ACEE37
S11311F0B4EFA50194010E944D09DC01CB018C0DD3
S11312009D1DAE1DBF1DB7FF03C00197A109B048C6
S113121088839983AA83BB839F77DF91CF91FF90C3
S1131220EF90DF90CF90BF90AF909F908F900895F4
S11312300E94CF08089580E690E00E94CF080895A8
S1131240A0E0B0E08093600090936100A0936200FE
S1131250B09363000895052E97FB1EF400940E943A
S1131260420957FD07D00E94520907FC03D04EF4EF
S11312700C94420950954095309521953F4F4F4F1E
S11312805F4F089590958095709561957F4F8F4F2E
S11312909F4F0895B7FF0C94C4080E94C408821B92
S11312A0930B0895A1E21A2EAA1BBB1BFD010DC0CE
S11312B0AA1FBB1FEE1FFF1FA217B307E407F50702
S11312C020F0A21BB30BE40BF50B661F771F881FDE
S11312D0991F1A9469F760957095809590959B0174
S10F12E0AC01BD01CF010895F894FFCFCC
S11312EC01000000796F7572206E756D6265722055
S11312FC69733A005265616C206E756D626572207B
S113130C69733A0063686F6F73652061206E756D45
S113131C62657220706C73006E756D62657220620A
S113132C65747765656E20313A313500596F7520D7
S113133C576F6E00596F75204C6F73740047756549
S113134C737320616E6F74686572206E756D62655F
S113135C723A0047756573732061206E756D626512
S105136C720009
S9030000FC
